:020000040800F2
:1000000000000120E102000831030008310300086C
:10001000310300083103000831030008000000002C
:100020000000000000000000000000003103000894
:10003000310300080000000031030008310300080C
:1000400000000000310300083103000831030008FC
:1000500031030008310300083103000831030008B0
:1000600031030008310300083103000831030008A0
:100070003103000831030008310300083103000890
:1000800031030008310300083103000800000000BC
:100090000000000000000000000000003103000824
:1000A0003103000831030008310300083103000860
:1000B0003103000831030008310300083103000850
:1000C0003103000831030008310300083103000840
:1000D000310300083103000831030008000000006C
:1000E0008D02000831030008310300080000000001
:1000F00000000000000000000000000031030008C4
:10010000000000003103000831030008310300083B
:1001100000000000000000000000000000000000DF
:1001200031030008310300083103000831030008DF
:100130003103000800000000000000000000000083
:100140000000000000000000000000003103000873
:1001500031030008310300083103000831030008AF
:100160003103000831030008000000000000000017
:10017000000000000000000000000000000000007F
:10018000000000000000000000000000000000006F
:04019000310300082F
:1001940010B5054C237833B9044B13B10448AFF3BD
:1001A40000800123237010BD000000200000000027
:1001B4007C03000808B5034B1BB103490348AFF3A4
:1001C400008008BD00000000040000207C0300083B
:1001D40080B400AF054B5B6C044A43F48043536422
:1001E40000BFBD465DF8047B704700BF0038024085
:1001F40080B400AF0B4B1B6B0A4A43F00403136338
:10020400094B1B68084A23F040631360064BDB6804
:10021400054A43F08063D36000BFBD465DF8047BAC
:10022400704700BF003802400008024080B400AFAD
:100234000B4B5B690A4A43F020035361094B1B686B
:10024400084A43F400531360064BDB68054A43F441
:100254000053D36000BFBD465DF8047B704700BF08
:1002640000380140003C014080B400AF054B5B689E
:10027400044A43F48073536000BFBD465DF8047BB9
:10028400704700BF00E100E080B400AF0B4B5B6936
:1002940003F40053002B0BD0094B5B69084A83F429
:1002A40080435361054B5B69044A43F40053536133
:1002B40000BFBD465DF8047B704700BF003C0140B1
:1002C4000008024080B500AFFFF782FFFFF790FF00
:1002D400FFF7ACFFFFF7C8FF00BFFDE70D488546F9
:1002E400FFF776FF0C480D490D4A002302E0D4586D
:1002F400C4500433C4188C42F9D30A4A0A4C00236C
:1003040001E013600432A242FBD300F011F8FFF7BE
:10031400D9FFFEE7000001200000002000000020BB
:100324009C030008000000201C000020FEE70000E1
:1003340070B50D4D0D4C641BA4100026A64209D1C6
:100344000B4D0C4C00F018F8641BA4100026A642B8
:1003540005D170BD55F8043B98470136EEE755F8D2
:10036400043B98470136F2E794030008940300081D
:100374009403000898030008F8B500BFF8BC08BC53
:100384009E467047F8B500BFF8BC08BC9E4670474F
:04039400B9010008A3
:0403980095010008C3
:04000005080002E10C
:00000001FF
